{
  "address": "0xC65F232C9c41dDF5139751746D2C0216c3CE34A6",
  "abi": [
    {
      "inputs": [],
      "stateMutability": "nonpayable",
      "type": "constructor"
    },
    {
      "inputs": [],
      "name": "InvalidAdminChange",
      "type": "error"
    },
    {
      "inputs": [],
      "name": "NotPendingAdmin",
      "type": "error"
    },
    {
      "inputs": [
        {
          "internalType": "address",
          "name": "have",
          "type": "address"
        },
        {
          "internalType": "address",
          "name": "want",
          "type": "address"
        }
      ],
      "name": "OnlyVRFWrapperCanFulfill",
      "type": "error"
    },
    {
      "anonymous": false,
      "inputs": [
        {
          "indexed": true,
          "internalType": "address",
          "name": "oldAdmin",
          "type": "address"
        },
        {
          "indexed": true,
          "internalType": "address",
          "name": "newAdmin",
          "type": "address"
        }
      ],
      "name": "AdminTransferRequested",
      "type": "event"
    },
    {
      "anonymous": false,
      "inputs": [
        {
          "indexed": true,
          "internalType": "address",
          "name": "oldAdmin",
          "type": "address"
        },
        {
          "indexed": true,
          "internalType": "address",
          "name": "newAdmin",
          "type": "address"
        }
      ],
      "name": "AdminTransferred",
      "type": "event"
    },
    {
      "anonymous": false,
      "inputs": [
        {
          "indexed": false,
          "internalType": "address",
          "name": "",
          "type": "address"
        },
        {
          "indexed": false,
          "internalType": "uint256",
          "name": "",
          "type": "uint256"
        }
      ],
      "name": "Received",
      "type": "event"
    },
    {
      "anonymous": false,
      "inputs": [
        {
          "indexed": false,
          "internalType": "uint256",
          "name": "requestId",
          "type": "uint256"
        },
        {
          "indexed": false,
          "internalType": "uint256[]",
          "name": "randomWords",
          "type": "uint256[]"
        },
        {
          "indexed": false,
          "internalType": "uint256",
          "name": "payment",
          "type": "uint256"
        }
      ],
      "name": "RequestFulfilled",
      "type": "event"
    },
    {
      "anonymous": false,
      "inputs": [
        {
          "indexed": false,
          "internalType": "uint256",
          "name": "requestId",
          "type": "uint256"
        },
        {
          "indexed": false,
          "internalType": "uint32",
          "name": "numWords",
          "type": "uint32"
        }
      ],
      "name": "RequestSent",
      "type": "event"
    },
    {
      "anonymous": false,
      "inputs": [
        {
          "indexed": true,
          "internalType": "bytes32",
          "name": "role",
          "type": "bytes32"
        },
        {
          "indexed": true,
          "internalType": "bytes32",
          "name": "previousAdminRole",
          "type": "bytes32"
        },
        {
          "indexed": true,
          "internalType": "bytes32",
          "name": "newAdminRole",
          "type": "bytes32"
        }
      ],
      "name": "RoleAdminChanged",
      "type": "event"
    },
    {
      "anonymous": false,
      "inputs": [
        {
          "indexed": true,
          "internalType": "bytes32",
          "name": "role",
          "type": "bytes32"
        },
        {
          "indexed": true,
          "internalType": "address",
          "name": "account",
          "type": "address"
        },
        {
          "indexed": true,
          "internalType": "address",
          "name": "sender",
          "type": "address"
        }
      ],
      "name": "RoleGranted",
      "type": "event"
    },
    {
      "anonymous": false,
      "inputs": [
        {
          "indexed": true,
          "internalType": "bytes32",
          "name": "role",
          "type": "bytes32"
        },
        {
          "indexed": true,
          "internalType": "address",
          "name": "account",
          "type": "address"
        },
        {
          "indexed": true,
          "internalType": "address",
          "name": "sender",
          "type": "address"
        }
      ],
      "name": "RoleRevoked",
      "type": "event"
    },
    {
      "inputs": [],
      "name": "DEFAULT_ADMIN_ROLE",
      "outputs": [
        {
          "internalType": "bytes32",
          "name": "",
          "type": "bytes32"
        }
      ],
      "stateMutability": "view",
      "type": "function"
    },
    {
      "inputs": [],
      "name": "acceptAdmin",
      "outputs": [],
      "stateMutability": "nonpayable",
      "type": "function"
    },
    {
      "inputs": [
        {
          "internalType": "address",
          "name": "_user",
          "type": "address"
        }
      ],
      "name": "addRandomRole",
      "outputs": [],
      "stateMutability": "nonpayable",
      "type": "function"
    },
    {
      "inputs": [],
      "name": "callbackGasLimit",
      "outputs": [
        {
          "internalType": "uint32",
          "name": "",
          "type": "uint32"
        }
      ],
      "stateMutability": "view",
      "type": "function"
    },
    {
      "inputs": [],
      "name": "getBalance",
      "outputs": [
        {
          "internalType": "uint256",
          "name": "",
          "type": "uint256"
        }
      ],
      "stateMutability": "view",
      "type": "function"
    },
    {
      "inputs": [],
      "name": "getLinkToken",
      "outputs": [
        {
          "internalType": "contract LinkTokenInterface",
          "name": "",
          "type": "address"
        }
      ],
      "stateMutability": "view",
      "type": "function"
    },
    {
      "inputs": [
        {
          "internalType": "uint256",
          "name": "_requestId",
          "type": "uint256"
        }
      ],
      "name": "getRequestStatus",
      "outputs": [
        {
          "internalType": "uint256",
          "name": "paid",
          "type": "uint256"
        },
        {
          "internalType": "bool",
          "name": "fulfilled",
          "type": "bool"
        },
        {
          "internalType": "uint256[]",
          "name": "randomWords",
          "type": "uint256[]"
        }
      ],
      "stateMutability": "view",
      "type": "function"
    },
    {
      "inputs": [
        {
          "internalType": "bytes32",
          "name": "role",
          "type": "bytes32"
        }
      ],
      "name": "getRoleAdmin",
      "outputs": [
        {
          "internalType": "bytes32",
          "name": "",
          "type": "bytes32"
        }
      ],
      "stateMutability": "view",
      "type": "function"
    },
    {
      "inputs": [
        {
          "internalType": "bytes32",
          "name": "role",
          "type": "bytes32"
        },
        {
          "internalType": "address",
          "name": "account",
          "type": "address"
        }
      ],
      "name": "grantRole",
      "outputs": [],
      "stateMutability": "nonpayable",
      "type": "function"
    },
    {
      "inputs": [
        {
          "internalType": "bytes32",
          "name": "role",
          "type": "bytes32"
        },
        {
          "internalType": "address",
          "name": "account",
          "type": "address"
        }
      ],
      "name": "hasRole",
      "outputs": [
        {
          "internalType": "bool",
          "name": "",
          "type": "bool"
        }
      ],
      "stateMutability": "view",
      "type": "function"
    },
    {
      "inputs": [],
      "name": "i_vrfV2PlusWrapper",
      "outputs": [
        {
          "internalType": "contract IVRFV2PlusWrapper",
          "name": "",
          "type": "address"
        }
      ],
      "stateMutability": "view",
      "type": "function"
    },
    {
      "inputs": [],
      "name": "lastRequestId",
      "outputs": [
        {
          "internalType": "uint256",
          "name": "",
          "type": "uint256"
        }
      ],
      "stateMutability": "view",
      "type": "function"
    },
    {
      "inputs": [],
      "name": "linkAddress",
      "outputs": [
        {
          "internalType": "address",
          "name": "",
          "type": "address"
        }
      ],
      "stateMutability": "view",
      "type": "function"
    },
    {
      "inputs": [],
      "name": "numWords",
      "outputs": [
        {
          "internalType": "uint32",
          "name": "",
          "type": "uint32"
        }
      ],
      "stateMutability": "view",
      "type": "function"
    },
    {
      "inputs": [],
      "name": "owner",
      "outputs": [
        {
          "internalType": "address",
          "name": "",
          "type": "address"
        }
      ],
      "stateMutability": "view",
      "type": "function"
    },
    {
      "inputs": [
        {
          "internalType": "uint256",
          "name": "_requestId",
          "type": "uint256"
        },
        {
          "internalType": "uint256[]",
          "name": "_randomWords",
          "type": "uint256[]"
        }
      ],
      "name": "rawFulfillRandomWords",
      "outputs": [],
      "stateMutability": "nonpayable",
      "type": "function"
    },
    {
      "inputs": [
        {
          "internalType": "address",
          "name": "role",
          "type": "address"
        }
      ],
      "name": "removeRandomRole",
      "outputs": [],
      "stateMutability": "nonpayable",
      "type": "function"
    },
    {
      "inputs": [
        {
          "internalType": "bytes32",
          "name": "role",
          "type": "bytes32"
        },
        {
          "internalType": "address",
          "name": "account",
          "type": "address"
        }
      ],
      "name": "renounceRole",
      "outputs": [],
      "stateMutability": "nonpayable",
      "type": "function"
    },
    {
      "inputs": [],
      "name": "requestConfirmations",
      "outputs": [
        {
          "internalType": "uint16",
          "name": "",
          "type": "uint16"
        }
      ],
      "stateMutability": "view",
      "type": "function"
    },
    {
      "inputs": [
        {
          "internalType": "uint256",
          "name": "",
          "type": "uint256"
        }
      ],
      "name": "requestIds",
      "outputs": [
        {
          "internalType": "uint256",
          "name": "",
          "type": "uint256"
        }
      ],
      "stateMutability": "view",
      "type": "function"
    },
    {
      "inputs": [
        {
          "internalType": "bool",
          "name": "enableNativePayment",
          "type": "bool"
        }
      ],
      "name": "requestRandomWords",
      "outputs": [
        {
          "internalType": "uint256",
          "name": "",
          "type": "uint256"
        }
      ],
      "stateMutability": "nonpayable",
      "type": "function"
    },
    {
      "inputs": [
        {
          "internalType": "bytes32",
          "name": "role",
          "type": "bytes32"
        },
        {
          "internalType": "address",
          "name": "account",
          "type": "address"
        }
      ],
      "name": "revokeRole",
      "outputs": [],
      "stateMutability": "nonpayable",
      "type": "function"
    },
    {
      "inputs": [
        {
          "internalType": "uint256",
          "name": "",
          "type": "uint256"
        }
      ],
      "name": "s_requests",
      "outputs": [
        {
          "internalType": "uint256",
          "name": "paid",
          "type": "uint256"
        },
        {
          "internalType": "bool",
          "name": "fulfilled",
          "type": "bool"
        }
      ],
      "stateMutability": "view",
      "type": "function"
    },
    {
      "inputs": [
        {
          "internalType": "bytes4",
          "name": "interfaceId",
          "type": "bytes4"
        }
      ],
      "name": "supportsInterface",
      "outputs": [
        {
          "internalType": "bool",
          "name": "",
          "type": "bool"
        }
      ],
      "stateMutability": "view",
      "type": "function"
    },
    {
      "inputs": [
        {
          "internalType": "address",
          "name": "newAdmin",
          "type": "address"
        }
      ],
      "name": "transferAdmin",
      "outputs": [],
      "stateMutability": "nonpayable",
      "type": "function"
    },
    {
      "inputs": [],
      "name": "withdrawLink",
      "outputs": [],
      "stateMutability": "nonpayable",
      "type": "function"
    },
    {
      "inputs": [
        {
          "internalType": "uint256",
          "name": "amount",
          "type": "uint256"
        }
      ],
      "name": "withdrawNative",
      "outputs": [],
      "stateMutability": "nonpayable",
      "type": "function"
    },
    {
      "inputs": [],
      "name": "wrapperAddress",
      "outputs": [
        {
          "internalType": "address",
          "name": "",
          "type": "address"
        }
      ],
      "stateMutability": "view",
      "type": "function"
    },
    {
      "stateMutability": "payable",
      "type": "receive"
    }
  ],
  "transactionHash": "0x1bddb2fb23ab06b8659822b66ba4272adb23bc4b667ae016f0b4dc6806bc6eaa",
  "args": [],
  "numDeployments": 1,
  "solcInputHash": "e4e1cb2278b15b973bf89151ad17c0de",
  "bytecode": "0x60c0604052600680547d0fd9e8d3af1aaee056eb9e802c3a762a667b1904000000010003000186a06001600160f01b0319909116179055600780546001600160a01b031916736e6c366a1cd1f92ba87fd6f96f743b0e6c967bf017905534801561006857600080fd5b5060075460408051630711a57d60e21b815290516001600160a01b039092169182918291631c4695f4916004808201926020929091908290030181865afa1580156100b7573d6000803e3d6000fd5b505050506040513d601f19601f820116820180604052508101906100db91906102a8565b6001600160a01b039081166080521660a052506100f96000336100fe565b6102d8565b8161017d576001546040516001600160a01b038084169216907ff8ccb027dfcd135e000e9d45e6cc2d662578a8825d4c45b5e32e0adf67e79ec690600090a3600154610155906000906001600160a01b031661018b565b600180546001600160a01b0383166001600160a01b0319918216179091556002805490911690555b610187828261020a565b5050565b6000828152602081815260408083206001600160a01b038516845290915290205460ff1615610187576000828152602081815260408083206001600160a01b0385168085529252808320805460ff1916905551339285917ff6391f5c32d9c69d2a47ea670b442974b53935d1edc7fd64eb21e047a839171b9190a45050565b6000828152602081815260408083206001600160a01b038516845290915290205460ff16610187576000828152602081815260408083206001600160a01b03851684529091529020805460ff191660011790556102643390565b6001600160a01b0316816001600160a01b0316837f2f8788117e7eff1d82e926ec794901d17c78024a50270940304540a733656f0d60405160405180910390a45050565b6000602082840312156102ba57600080fd5b81516001600160a01b03811681146102d157600080fd5b9392505050565b60805160a05161216561032e600039600081816105210152818161078b01528181611457015281816114c6015281816115c801528181611673015261171d015260008181610658015261163701526121656000f3fe6080604052600436106101bb5760003560e01c806384276d81116100ec578063a217fddf1161008a578063d547741f11610064578063d547741f146105fa578063d8a4676f1461061a578063e76d516814610649578063fc2a88c31461067c57600080fd5b8063a217fddf1461058f578063b0fb162f146105a4578063bc301574146105da57600080fd5b80638dc654a2116100c65780638dc654a2146104a957806391d14854146104be5780639ed0868d1461050f578063a168fa891461054357600080fd5b806384276d811461043e5780638796ba8c1461045e5780638da5cb5b1461047e57600080fd5b80632f2ff15d116101595780637392a771116101335780637392a771146103aa57806375829def146103ca5780637ccfd7fc146103ea5780637df8b8021461041157600080fd5b80632f2ff15d1461034a57806336568abe1461036a5780635d16908e1461038a57600080fd5b80631fe543e3116101955780631fe543e314610268578063235cea9814610288578063248a9ca3146102e857806324f746971461031857600080fd5b806301ffc9a7146101ff5780630e18b6811461023457806312065fe01461024b57600080fd5b366101fa57604080513381523460208201527f88a5966d370b9919b20f3e2c13ff65706f196a4e32cc2c12bf57088f88525874910160405180910390a1005b600080fd5b34801561020b57600080fd5b5061021f61021a366004611c1b565b610692565b60405190151581526020015b60405180910390f35b34801561024057600080fd5b5061024961072b565b005b34801561025757600080fd5b50475b60405190815260200161022b565b34801561027457600080fd5b50610249610283366004611c8c565b610789565b34801561029457600080fd5b506006546102c3906a0100000000000000000000900473ffffffffffffffffffffffffffffffffffffffff1681565b60405173ffffffffffffffffffffffffffffffffffffffff909116815260200161022b565b3480156102f457600080fd5b5061025a610303366004611d83565b60009081526020819052604090206001015490565b34801561032457600080fd5b506006546103359063ffffffff1681565b60405163ffffffff909116815260200161022b565b34801561035657600080fd5b50610249610365366004611dc5565b61082b565b34801561037657600080fd5b50610249610385366004611dc5565b61087e565b34801561039657600080fd5b506102496103a5366004611df1565b6108c0565b3480156103b657600080fd5b5061025a6103c5366004611e1a565b6108f9565b3480156103d657600080fd5b506102496103e5366004611df1565b610acb565b3480156103f657600080fd5b50600654610335906601000000000000900463ffffffff1681565b34801561041d57600080fd5b506007546102c39073ffffffffffffffffffffffffffffffffffffffff1681565b34801561044a57600080fd5b50610249610459366004611d83565b610b9d565b34801561046a57600080fd5b5061025a610479366004611d83565b610c90565b34801561048a57600080fd5b5060015473ffffffffffffffffffffffffffffffffffffffff166102c3565b3480156104b557600080fd5b50610249610cb1565b3480156104ca57600080fd5b5061021f6104d9366004611dc5565b60009182526020828152604080842073ffffffffffffffffffffffffffffffffffffffff93909316845291905290205460ff1690565b34801561051b57600080fd5b506102c37f000000000000000000000000000000000000000000000000000000000000000081565b34801561054f57600080fd5b5061057a61055e366004611d83565b6003602052600090815260409020805460019091015460ff1682565b6040805192835290151560208301520161022b565b34801561059b57600080fd5b5061025a600081565b3480156105b057600080fd5b506006546105c790640100000000900461ffff1681565b60405161ffff909116815260200161022b565b3480156105e657600080fd5b506102496105f5366004611df1565b610e61565b34801561060657600080fd5b50610249610615366004611dc5565b610e96565b34801561062657600080fd5b5061063a610635366004611d83565b610ee3565b60405161022b93929190611e73565b34801561065557600080fd5b507f00000000000000000000000000000000000000000000000000000000000000006102c3565b34801561068857600080fd5b5061025a60055481565b60007fffffffff0000000000000000000000000000000000000000000000000000000082167f7965db0b00000000000000000000000000000000000000000000000000000000148061072557507f01ffc9a7000000000000000000000000000000000000000000000000000000007fffffffff000000000000000000000000000000000000000000000000000000008316145b92915050565b60025473ffffffffffffffffffffffffffffffffffffffff16331461077c576040517f058d9a1b00000000000000000000000000000000000000000000000000000000815260040160405180910390fd5b610787600033610ff7565b565b7f00000000000000000000000000000000000000000000000000000000000000003373ffffffffffffffffffffffffffffffffffffffff82161461081c576040517f8ba9316e00000000000000000000000000000000000000000000000000000000815233600482015273ffffffffffffffffffffffffffffffffffffffff821660248201526044015b60405180910390fd5b61082683836110bf565b505050565b6000610836816111d6565b828061086e576040517f6317a0fa00000000000000000000000000000000000000000000000000000000815260040160405180910390fd5b6108788484610ff7565b50505050565b81806108b6576040517f6317a0fa00000000000000000000000000000000000000000000000000000000815260040160405180910390fd5b61082683836111e3565b60006108cb816111d6565b6108f57f1aca1516ed0211ebda8cb0db4547d2dab09c1b3a281dd40978bb2cf3801171f38361128e565b5050565b60007f1aca1516ed0211ebda8cb0db4547d2dab09c1b3a281dd40978bb2cf3801171f3610925816111d6565b60006109406040518060200160405280861515815250611345565b905060008085156109845760065461097a9063ffffffff8082169161ffff6401000000008204169166010000000000009091041686611401565b90925090506109b9565b6006546109b39063ffffffff8082169161ffff6401000000008204169166010000000000009091041686611572565b90925090505b60408051606081018252828152600060208083018281528451838152808301865284860190815287845260038352949092208351815591516001830180547fffffffffffffffffffffffffffffffffffffffffffffffffffffffffffffff00169115159190911790559251805192939192610a3a9260028501920190611bbb565b5050600480546001810182556000919091527f8a35acfbc15ff81a39ae7d344fd709f28e8600b4aa8c65c6b64bfe7fe36bd19b0183905550600582905560065460408051848152660100000000000090920463ffffffff1660208301527fcc58b13ad3eab50626c6a6300b1d139cd6ebb1688a7cced9461c2f7e762665ee910160405180910390a150949350505050565b6000610ad6816111d6565b3373ffffffffffffffffffffffffffffffffffffffff831603610b25576040517f6317a0fa00000000000000000000000000000000000000000000000000000000815260040160405180910390fd5b600280547fffffffffffffffffffffffff00000000000000000000000000000000000000001673ffffffffffffffffffffffffffffffffffffffff848116918217909255600154604051919216907fefdcbba819467e00b0262c12892dda980bac68580b72178e57a162368b80876690600090a35050565b6000610ba8816111d6565b6000610bc960015473ffffffffffffffffffffffffffffffffffffffff1690565b73ffffffffffffffffffffffffffffffffffffffff168360405160006040518083038185875af1925050503d8060008114610c20576040519150601f19603f3d011682016040523d82523d6000602084013e610c25565b606091505b5050905080610826576040517f08c379a000000000000000000000000000000000000000000000000000000000815260206004820152601560248201527f77697468647261774e6174697665206661696c656400000000000000000000006044820152606401610813565b60048181548110610ca057600080fd5b600091825260209091200154905081565b6000610cbc816111d6565b6006546040517f70a082310000000000000000000000000000000000000000000000000000000081523060048201526a010000000000000000000090910473ffffffffffffffffffffffffffffffffffffffff1690819063a9059cbb90339083906370a0823190602401602060405180830381865afa158015610d43573d6000803e3d6000fd5b505050506040513d601f19601f82011682018060405250810190610d679190611e9d565b6040517fffffffff0000000000000000000000000000000000000000000000000000000060e085901b16815273ffffffffffffffffffffffffffffffffffffffff909216600483015260248201526044016020604051808303816000875af1158015610dd7573d6000803e3d6000fd5b505050506040513d601f19601f82011682018060405250810190610dfb9190611eb6565b6108f5576040517f08c379a000000000000000000000000000000000000000000000000000000000815260206004820152601260248201527f556e61626c6520746f207472616e7366657200000000000000000000000000006044820152606401610813565b6000610e6c816111d6565b6108f57f1aca1516ed0211ebda8cb0db4547d2dab09c1b3a281dd40978bb2cf3801171f383610ff7565b6000610ea1816111d6565b8280610ed9576040517f6317a0fa00000000000000000000000000000000000000000000000000000000815260040160405180910390fd5b610878848461128e565b6000818152600360205260408120548190606090610f5d576040517f08c379a000000000000000000000000000000000000000000000000000000000815260206004820152601160248201527f72657175657374206e6f7420666f756e640000000000000000000000000000006044820152606401610813565b6000848152600360209081526040808320815160608101835281548152600182015460ff16151581850152600282018054845181870281018701865281815292959394860193830182828015610fd257602002820191906000526020600020905b815481526020019060010190808311610fbe575b5050509190925250508151602083015160409093015190989297509550909350505050565b816110b55760015460405173ffffffffffffffffffffffffffffffffffffffff8084169216907ff8ccb027dfcd135e000e9d45e6cc2d662578a8825d4c45b5e32e0adf67e79ec690600090a36001546110689060009073ffffffffffffffffffffffffffffffffffffffff1661128e565b6001805473ffffffffffffffffffffffffffffffffffffffff83167fffffffffffffffffffffffff0000000000000000000000000000000000000000918216179091556002805490911690555b6108f582826117aa565b600082815260036020526040902054611134576040517f08c379a000000000000000000000000000000000000000000000000000000000815260206004820152601160248201527f72657175657374206e6f7420666f756e640000000000000000000000000000006044820152606401610813565b6000828152600360209081526040909120600181810180547fffffffffffffffffffffffffffffffffffffffffffffffffffffffffffffff00169091179055825161118792600290920191840190611bbb565b50600082815260036020526040908190205490517f147eb1ff0c82f87f2b03e2c43f5a36488ff63ec6b730195fde4605f612f8db51916111ca9185918591611ed3565b60405180910390a15050565b6111e0813361189a565b50565b73ffffffffffffffffffffffffffffffffffffffff81163314611288576040517f08c379a000000000000000000000000000000000000000000000000000000000815260206004820152602f60248201527f416363657373436f6e74726f6c3a2063616e206f6e6c792072656e6f756e636560448201527f20726f6c657320666f722073656c6600000000000000000000000000000000006064820152608401610813565b6108f582825b60008281526020818152604080832073ffffffffffffffffffffffffffffffffffffffff8516845290915290205460ff16156108f55760008281526020818152604080832073ffffffffffffffffffffffffffffffffffffffff8516808552925280832080547fffffffffffffffffffffffffffffffffffffffffffffffffffffffffffffff0016905551339285917ff6391f5c32d9c69d2a47ea670b442974b53935d1edc7fd64eb21e047a839171b9190a45050565b60607f92fd13387c7fe7befbc38d303d6468778fb9731bc4583f17d92989c6fcfdeaaa8260405160240161137e91511515815260200190565b604080517fffffffffffffffffffffffffffffffffffffffffffffffffffffffffffffffe08184030181529190526020810180517bffffffffffffffffffffffffffffffffffffffffffffffffffffffff167fffffffff000000000000000000000000000000000000000000000000000000009093169290921790915292915050565b6040517f13c34b7f00000000000000000000000000000000000000000000000000000000815263ffffffff808616600483015283166024820152600090819073ffffffffffffffffffffffffffffffffffffffff7f000000000000000000000000000000000000000000000000000000000000000016906313c34b7f90604401602060405180830381865afa15801561149e573d6000803e3d6000fd5b505050506040513d601f19601f820116820180604052508101906114c29190611e9d565b90507f000000000000000000000000000000000000000000000000000000000000000073ffffffffffffffffffffffffffffffffffffffff16639cfc058e82888888886040518663ffffffff1660e01b81526004016115249493929190611f6a565b60206040518083038185885af1158015611542573d6000803e3d6000fd5b50505050506040513d601f19601f820116820180604052508101906115679190611e9d565b915094509492505050565b6040517f27e5c50a00000000000000000000000000000000000000000000000000000000815263ffffffff808616600483015283166024820152600090819073ffffffffffffffffffffffffffffffffffffffff7f000000000000000000000000000000000000000000000000000000000000000016906327e5c50a90604401602060405180830381865afa15801561160f573d6000803e3d6000fd5b505050506040513d601f19601f820116820180604052508101906116339190611e9d565b90507f000000000000000000000000000000000000000000000000000000000000000073ffffffffffffffffffffffffffffffffffffffff16634000aea07f000000000000000000000000000000000000000000000000000000000000000083898989896040516020016116aa9493929190611f6a565b6040516020818303038152906040526040518463ffffffff1660e01b81526004016116d793929190611fa9565b6020604051808303816000875af11580156116f6573d6000803e3d6000fd5b505050506040513d601f19601f8201168201806040525081019061171a9190611eb6565b507f000000000000000000000000000000000000000000000000000000000000000073ffffffffffffffffffffffffffffffffffffffff1663fc2a88c36040518163ffffffff1660e01b8152600401602060405180830381865afa158015611786573d6000803e3d6000fd5b505050506040513d601f19601f820116820180604052508101906115679190611e9d565b60008281526020818152604080832073ffffffffffffffffffffffffffffffffffffffff8516845290915290205460ff166108f55760008281526020818152604080832073ffffffffffffffffffffffffffffffffffffffff85168452909152902080547fffffffffffffffffffffffffffffffffffffffffffffffffffffffffffffff0016600117905561183c3390565b73ffffffffffffffffffffffffffffffffffffffff168173ffffffffffffffffffffffffffffffffffffffff16837f2f8788117e7eff1d82e926ec794901d17c78024a50270940304540a733656f0d60405160405180910390a45050565b60008281526020818152604080832073ffffffffffffffffffffffffffffffffffffffff8516845290915290205460ff166108f5576118d881611952565b6118e3836020611971565b6040516020016118f4929190611fde565b604080517fffffffffffffffffffffffffffffffffffffffffffffffffffffffffffffffe0818403018152908290527f08c379a00000000000000000000000000000000000000000000000000000000082526108139160040161205f565b606061072573ffffffffffffffffffffffffffffffffffffffff831660145b606060006119808360026120a1565b61198b9060026120b8565b67ffffffffffffffff8111156119a3576119a3611c5d565b6040519080825280601f01601f1916602001820160405280156119cd576020820181803683370190505b5090507f300000000000000000000000000000000000000000000000000000000000000081600081518110611a0457611a046120cb565b60200101907effffffffffffffffffffffffffffffffffffffffffffffffffffffffffffff1916908160001a9053507f780000000000000000000000000000000000000000000000000000000000000081600181518110611a6757611a676120cb565b60200101907effffffffffffffffffffffffffffffffffffffffffffffffffffffffffffff1916908160001a9053506000611aa38460026120a1565b611aae9060016120b8565b90505b6001811115611b4b577f303132333435363738396162636465660000000000000000000000000000000085600f1660108110611aef57611aef6120cb565b1a60f81b828281518110611b0557611b056120cb565b60200101907effffffffffffffffffffffffffffffffffffffffffffffffffffffffffffff1916908160001a90535060049490941c93611b44816120fa565b9050611ab1565b508315611bb4576040517f08c379a000000000000000000000000000000000000000000000000000000000815260206004820181905260248201527f537472696e67733a20686578206c656e67746820696e73756666696369656e746044820152606401610813565b9392505050565b828054828255906000526020600020908101928215611bf6579160200282015b82811115611bf6578251825591602001919060010190611bdb565b50611c02929150611c06565b5090565b5b80821115611c025760008155600101611c07565b600060208284031215611c2d57600080fd5b81357fffffffff0000000000000000000000000000000000000000000000000000000081168114611bb457600080fd5b7f4e487b7100000000000000000000000000000000000000000000000000000000600052604160045260246000fd5b60008060408385031215611c9f57600080fd5b82359150602083013567ffffffffffffffff811115611cbd57600080fd5b8301601f81018513611cce57600080fd5b803567ffffffffffffffff811115611ce857611ce8611c5d565b8060051b6040517fffffffffffffffffffffffffffffffffffffffffffffffffffffffffffffffe0603f830116810181811067ffffffffffffffff82111715611d3357611d33611c5d565b604052918252602081840181019290810188841115611d5157600080fd5b6020850194505b83851015611d7457843580825260209586019590935001611d58565b50809450505050509250929050565b600060208284031215611d9557600080fd5b5035919050565b803573ffffffffffffffffffffffffffffffffffffffff81168114611dc057600080fd5b919050565b60008060408385031215611dd857600080fd5b82359150611de860208401611d9c565b90509250929050565b600060208284031215611e0357600080fd5b611bb482611d9c565b80151581146111e057600080fd5b600060208284031215611e2c57600080fd5b8135611bb481611e0c565b600081518084526020840193506020830160005b82811015611e69578151865260209586019590910190600101611e4b565b5093949350505050565b8381528215156020820152606060408201526000611e946060830184611e37565b95945050505050565b600060208284031215611eaf57600080fd5b5051919050565b600060208284031215611ec857600080fd5b8151611bb481611e0c565b838152606060208201526000611eec6060830185611e37565b9050826040830152949350505050565b60005b83811015611f17578181015183820152602001611eff565b50506000910152565b60008151808452611f38816020860160208601611efc565b601f017fffffffffffffffffffffffffffffffffffffffffffffffffffffffffffffffe0169290920160200192915050565b63ffffffff8516815261ffff8416602082015263ffffffff83166040820152608060608201526000611f9f6080830184611f20565b9695505050505050565b73ffffffffffffffffffffffffffffffffffffffff84168152826020820152606060408201526000611e946060830184611f20565b7f416363657373436f6e74726f6c3a206163636f756e7420000000000000000000815260008351612016816017850160208801611efc565b7f206973206d697373696e6720726f6c65200000000000000000000000000000006017918401918201528351612053816028840160208801611efc565b01602801949350505050565b602081526000611bb46020830184611f20565b7f4e487b7100000000000000000000000000000000000000000000000000000000600052601160045260246000fd5b808202811582820484141761072557610725612072565b8082018082111561072557610725612072565b7f4e487b7100000000000000000000000000000000000000000000000000000000600052603260045260246000fd5b60008161210957612109612072565b507fffffffffffffffffffffffffffffffffffffffffffffffffffffffffffffffff019056fea26469706673582212206bf69d75ad2d2d75d1102e252447332d56b22b73df7576525f657f25fb71d51664736f6c634300081b0033",
  "devdoc": {
    "events": {
      "RoleAdminChanged(bytes32,bytes32,bytes32)": {
        "details": "Emitted when `newAdminRole` is set as ``role``'s admin role, replacing `previousAdminRole` `DEFAULT_ADMIN_ROLE` is the starting admin for all roles, despite {RoleAdminChanged} not being emitted signaling this. _Available since v3.1._"
      },
      "RoleGranted(bytes32,address,address)": {
        "details": "Emitted when `account` is granted `role`. `sender` is the account that originated the contract call, an admin role bearer except when using {AccessControl-_setupRole}."
      },
      "RoleRevoked(bytes32,address,address)": {
        "details": "Emitted when `account` is revoked `role`. `sender` is the account that originated the contract call:   - if using `revokeRole`, it is the admin role bearer   - if using `renounceRole`, it is the role bearer (i.e. `account`)"
      }
    },
    "kind": "dev",
    "methods": {
      "getRoleAdmin(bytes32)": {
        "details": "Returns the admin role that controls `role`. See {grantRole} and {revokeRole}. To change a role's admin, use {_setRoleAdmin}."
      },
      "grantRole(bytes32,address)": {
        "params": {
          "account": "address",
          "role": "bytes32"
        }
      },
      "hasRole(bytes32,address)": {
        "details": "Returns `true` if `account` has been granted `role`."
      },
      "owner()": {
        "details": "See {IERC5313-owner}."
      },
      "renounceRole(bytes32,address)": {
        "params": {
          "account": "address",
          "role": "bytes32"
        }
      },
      "revokeRole(bytes32,address)": {
        "params": {
          "account": "address",
          "role": "bytes32"
        }
      },
      "supportsInterface(bytes4)": {
        "details": "See {IERC165-supportsInterface}."
      },
      "transferAdmin(address)": {
        "params": {
          "newAdmin": "address"
        }
      },
      "withdrawNative(uint256)": {
        "params": {
          "amount": "the amount to withdraw, in wei"
        }
      }
    },
    "version": 1
  },
  "userdoc": {
    "kind": "user",
    "methods": {
      "getBalance()": {
        "notice": "getBalance returns the native balance of the consumer contract"
      },
      "getLinkToken()": {
        "notice": "getLinkToken returns the link token contract"
      },
      "grantRole(bytes32,address)": {
        "notice": "grant a rolecan only be executed by the current single adminadmin role cannot be granted externally"
      },
      "renounceRole(bytes32,address)": {
        "notice": "renounce the role of msg.senderadmin role cannot be renounced"
      },
      "revokeRole(bytes32,address)": {
        "notice": "revoke a rolecan only be executed by the current adminadmin role cannot be revoked"
      },
      "transferAdmin(address)": {
        "notice": "Transfer the admin role to a new addressThis can ONLY be executed by the current admin"
      },
      "withdrawLink()": {
        "notice": "Allow withdraw of Link tokens from the contract"
      },
      "withdrawNative(uint256)": {
        "notice": "withdrawNative withdraws the amount specified in amount to the owner"
      }
    },
    "notice": "THIS IS AN EXAMPLE CONTRACT THAT USES HARDCODED VALUES FOR CLARITY. THIS IS AN EXAMPLE CONTRACT THAT USES UN-AUDITED CODE. DO NOT USE THIS CODE IN PRODUCTION.",
    "version": 1
  },
  "storageLayout": {
    "storage": [
      {
        "astId": 433,
        "contract": "contracts/DirectFundingConsumer.sol:DirectFundingConsumer",
        "label": "_roles",
        "offset": 0,
        "slot": "0",
        "type": "t_mapping(t_bytes32,t_struct(RoleData)428_storage)"
      },
      {
        "astId": 2437,
        "contract": "contracts/DirectFundingConsumer.sol:DirectFundingConsumer",
        "label": "_currentDefaultAdmin",
        "offset": 0,
        "slot": "1",
        "type": "t_address"
      },
      {
        "astId": 2439,
        "contract": "contracts/DirectFundingConsumer.sol:DirectFundingConsumer",
        "label": "_pendingDefaultAdmin",
        "offset": 0,
        "slot": "2",
        "type": "t_address"
      },
      {
        "astId": 2115,
        "contract": "contracts/DirectFundingConsumer.sol:DirectFundingConsumer",
        "label": "s_requests",
        "offset": 0,
        "slot": "3",
        "type": "t_mapping(t_uint256,t_struct(RequestStatus)2110_storage)"
      },
      {
        "astId": 2118,
        "contract": "contracts/DirectFundingConsumer.sol:DirectFundingConsumer",
        "label": "requestIds",
        "offset": 0,
        "slot": "4",
        "type": "t_array(t_uint256)dyn_storage"
      },
      {
        "astId": 2120,
        "contract": "contracts/DirectFundingConsumer.sol:DirectFundingConsumer",
        "label": "lastRequestId",
        "offset": 0,
        "slot": "5",
        "type": "t_uint256"
      },
      {
        "astId": 2123,
        "contract": "contracts/DirectFundingConsumer.sol:DirectFundingConsumer",
        "label": "callbackGasLimit",
        "offset": 0,
        "slot": "6",
        "type": "t_uint32"
      },
      {
        "astId": 2126,
        "contract": "contracts/DirectFundingConsumer.sol:DirectFundingConsumer",
        "label": "requestConfirmations",
        "offset": 4,
        "slot": "6",
        "type": "t_uint16"
      },
      {
        "astId": 2129,
        "contract": "contracts/DirectFundingConsumer.sol:DirectFundingConsumer",
        "label": "numWords",
        "offset": 6,
        "slot": "6",
        "type": "t_uint32"
      },
      {
        "astId": 2132,
        "contract": "contracts/DirectFundingConsumer.sol:DirectFundingConsumer",
        "label": "linkAddress",
        "offset": 10,
        "slot": "6",
        "type": "t_address"
      },
      {
        "astId": 2135,
        "contract": "contracts/DirectFundingConsumer.sol:DirectFundingConsumer",
        "label": "wrapperAddress",
        "offset": 0,
        "slot": "7",
        "type": "t_address"
      }
    ],
    "types": {
      "t_address": {
        "encoding": "inplace",
        "label": "address",
        "numberOfBytes": "20"
      },
      "t_array(t_uint256)dyn_storage": {
        "base": "t_uint256",
        "encoding": "dynamic_array",
        "label": "uint256[]",
        "numberOfBytes": "32"
      },
      "t_bool": {
        "encoding": "inplace",
        "label": "bool",
        "numberOfBytes": "1"
      },
      "t_bytes32": {
        "encoding": "inplace",
        "label": "bytes32",
        "numberOfBytes": "32"
      },
      "t_mapping(t_address,t_bool)": {
        "encoding": "mapping",
        "key": "t_address",
        "label": "mapping(address => bool)",
        "numberOfBytes": "32",
        "value": "t_bool"
      },
      "t_mapping(t_bytes32,t_struct(RoleData)428_storage)": {
        "encoding": "mapping",
        "key": "t_bytes32",
        "label": "mapping(bytes32 => struct AccessControl.RoleData)",
        "numberOfBytes": "32",
        "value": "t_struct(RoleData)428_storage"
      },
      "t_mapping(t_uint256,t_struct(RequestStatus)2110_storage)": {
        "encoding": "mapping",
        "key": "t_uint256",
        "label": "mapping(uint256 => struct DirectFundingConsumer.RequestStatus)",
        "numberOfBytes": "32",
        "value": "t_struct(RequestStatus)2110_storage"
      },
      "t_struct(RequestStatus)2110_storage": {
        "encoding": "inplace",
        "label": "struct DirectFundingConsumer.RequestStatus",
        "members": [
          {
            "astId": 2104,
            "contract": "contracts/DirectFundingConsumer.sol:DirectFundingConsumer",
            "label": "paid",
            "offset": 0,
            "slot": "0",
            "type": "t_uint256"
          },
          {
            "astId": 2106,
            "contract": "contracts/DirectFundingConsumer.sol:DirectFundingConsumer",
            "label": "fulfilled",
            "offset": 0,
            "slot": "1",
            "type": "t_bool"
          },
          {
            "astId": 2109,
            "contract": "contracts/DirectFundingConsumer.sol:DirectFundingConsumer",
            "label": "randomWords",
            "offset": 0,
            "slot": "2",
            "type": "t_array(t_uint256)dyn_storage"
          }
        ],
        "numberOfBytes": "96"
      },
      "t_struct(RoleData)428_storage": {
        "encoding": "inplace",
        "label": "struct AccessControl.RoleData",
        "members": [
          {
            "astId": 425,
            "contract": "contracts/DirectFundingConsumer.sol:DirectFundingConsumer",
            "label": "members",
            "offset": 0,
            "slot": "0",
            "type": "t_mapping(t_address,t_bool)"
          },
          {
            "astId": 427,
            "contract": "contracts/DirectFundingConsumer.sol:DirectFundingConsumer",
            "label": "adminRole",
            "offset": 0,
            "slot": "1",
            "type": "t_bytes32"
          }
        ],
        "numberOfBytes": "64"
      },
      "t_uint16": {
        "encoding": "inplace",
        "label": "uint16",
        "numberOfBytes": "2"
      },
      "t_uint256": {
        "encoding": "inplace",
        "label": "uint256",
        "numberOfBytes": "32"
      },
      "t_uint32": {
        "encoding": "inplace",
        "label": "uint32",
        "numberOfBytes": "4"
      }
    }
  }
}